{
  "_format": "hh-sol-artifact-1",
  "contractName": "CoinFlip",
  "sourceName": "contracts/CoinFlip.sol",
  "abi": [
    {
      "anonymous": false,
      "inputs": [
        {
          "indexed": true,
          "internalType": "address",
          "name": "previousOwner",
          "type": "address"
        },
        {
          "indexed": true,
          "internalType": "address",
          "name": "newOwner",
          "type": "address"
        }
      ],
      "name": "OwnershipTransferred",
      "type": "event"
    },
    {
      "inputs": [],
      "name": "addFunds",
      "outputs": [],
      "stateMutability": "payable",
      "type": "function"
    },
    {
      "inputs": [
        {
          "internalType": "uint256",
          "name": "_cote",
          "type": "uint256"
        }
      ],
      "name": "bet",
      "outputs": [
        {
          "internalType": "uint256",
          "name": "",
          "type": "uint256"
        }
      ],
      "stateMutability": "payable",
      "type": "function"
    },
    {
      "inputs": [],
      "name": "getBalance",
      "outputs": [
        {
          "internalType": "uint256",
          "name": "",
          "type": "uint256"
        }
      ],
      "stateMutability": "view",
      "type": "function"
    },
    {
      "inputs": [],
      "name": "getOwner",
      "outputs": [
        {
          "internalType": "address",
          "name": "",
          "type": "address"
        }
      ],
      "stateMutability": "view",
      "type": "function"
    },
    {
      "inputs": [],
      "name": "owner",
      "outputs": [
        {
          "internalType": "address",
          "name": "",
          "type": "address"
        }
      ],
      "stateMutability": "view",
      "type": "function"
    },
    {
      "inputs": [],
      "name": "renounceOwnership",
      "outputs": [],
      "stateMutability": "nonpayable",
      "type": "function"
    },
    {
      "inputs": [
        {
          "internalType": "address",
          "name": "newOwner",
          "type": "address"
        }
      ],
      "name": "transferOwnership",
      "outputs": [],
      "stateMutability": "nonpayable",
      "type": "function"
    },
    {
      "inputs": [],
      "name": "withDrawEther",
      "outputs": [],
      "stateMutability": "payable",
      "type": "function"
    }
  ],
  "bytecode": "0x608060405234801561001057600080fd5b5061002d61002261003260201b60201c565b61003a60201b60201c565b6100fe565b600033905090565b60008060009054906101000a900473ffffffffffffffffffffffffffffffffffffffff169050816000806101000a81548173ffffffffffffffffffffffffffffffffffffffff021916908373ffffffffffffffffffffffffffffffffffffffff1602179055508173ffffffffffffffffffffffffffffffffffffffff168173ffffffffffffffffffffffffffffffffffffffff167f8be0079c531659141344cd1fd0a4f28419497f9722a3daafe3b4186f6b6457e060405160405180910390a35050565b610ba28061010d6000396000f3fe60806040526004361061007b5760003560e01c80638da5cb5b1161004e5780638da5cb5b1461011d5780639c0c223814610148578063a26759cb14610152578063f2fde38b1461015c5761007b565b806312065fe014610080578063715018a6146100ab5780637365870b146100c2578063893d20e8146100f2575b600080fd5b34801561008c57600080fd5b50610095610185565b6040516100a29190610646565b60405180910390f35b3480156100b757600080fd5b506100c061018d565b005b6100dc60048036038101906100d79190610692565b6101a1565b6040516100e99190610646565b60405180910390f35b3480156100fe57600080fd5b50610107610308565b6040516101149190610700565b60405180910390f35b34801561012957600080fd5b50610132610317565b60405161013f9190610700565b60405180910390f35b610150610340565b005b61015a610391565b005b34801561016857600080fd5b50610183600480360381019061017e9190610747565b61039b565b005b600047905090565b61019561041e565b61019f600061049c565b565b6000670de0b6b3a764000034146101b757600080fd5b683635c9adc5dea000004711610202576040517f08c379a00000000000000000000000000000000000000000000000000000000081526004016101f9906107d1565b60405180910390fd5b60006002423360405160200161021992919061085a565b6040516020818303038152906040528051906020012060001c61023c91906108b5565b905061027d6040518060400160405280600f81526020017f72616e646f6d206e756d626572203d000000000000000000000000000000000081525082610560565b8281036102fd57600060023447476102959190610915565b61029f9190610949565b6102a9919061097d565b90503373ffffffffffffffffffffffffffffffffffffffff166108fc829081150290604051600060405180830381858888f193505050501580156102f1573d6000803e3d6000fd5b50600192505050610303565b60009150505b919050565b6000610312610317565b905090565b60008060009054906101000a900473ffffffffffffffffffffffffffffffffffffffff16905090565b61034861041e565b3373ffffffffffffffffffffffffffffffffffffffff166108fc479081150290604051600060405180830381858888f1935050505015801561038e573d6000803e3d6000fd5b50565b61039961041e565b565b6103a361041e565b600073ffffffffffffffffffffffffffffffffffffffff168173ffffffffffffffffffffffffffffffffffffffff1603610412576040517f08c379a000000000000000000000000000000000000000000000000000000000815260040161040990610a31565b60405180910390fd5b61041b8161049c565b50565b6104266105fc565b73ffffffffffffffffffffffffffffffffffffffff16610444610317565b73ffffffffffffffffffffffffffffffffffffffff161461049a576040517f08c379a000000000000000000000000000000000000000000000000000000000815260040161049190610a9d565b60405180910390fd5b565b60008060009054906101000a900473ffffffffffffffffffffffffffffffffffffffff169050816000806101000a81548173ffffffffffffffffffffffffffffffffffffffff021916908373ffffffffffffffffffffffffffffffffffffffff1602179055508173ffffffffffffffffffffffffffffffffffffffff168173ffffffffffffffffffffffffffffffffffffffff167f8be0079c531659141344cd1fd0a4f28419497f9722a3daafe3b4186f6b6457e060405160405180910390a35050565b6105f88282604051602401610576929190610b3c565b6040516020818303038152906040527fb60e72cc000000000000000000000000000000000000000000000000000000007bffffffffffffffffffffffffffffffffffffffffffffffffffffffff19166020820180517bffffffffffffffffffffffffffffffffffffffffffffffffffffffff8381831617835250505050610604565b5050565b600033905090565b60008151905060006a636f6e736f6c652e6c6f679050602083016000808483855afa5050505050565b6000819050919050565b6106408161062d565b82525050565b600060208201905061065b6000830184610637565b92915050565b600080fd5b61066f8161062d565b811461067a57600080fd5b50565b60008135905061068c81610666565b92915050565b6000602082840312156106a8576106a7610661565b5b60006106b68482850161067d565b91505092915050565b600073ffffffffffffffffffffffffffffffffffffffff82169050919050565b60006106ea826106bf565b9050919050565b6106fa816106df565b82525050565b600060208201905061071560008301846106f1565b92915050565b610724816106df565b811461072f57600080fd5b50565b6000813590506107418161071b565b92915050565b60006020828403121561075d5761075c610661565b5b600061076b84828501610732565b91505092915050565b600082825260208201905092915050565b7f496e73756666696369656e742046756e64730000000000000000000000000000600082015250565b60006107bb601283610774565b91506107c682610785565b602082019050919050565b600060208201905081810360008301526107ea816107ae565b9050919050565b6000819050919050565b61080c6108078261062d565b6107f1565b82525050565b60008160601b9050919050565b600061082a82610812565b9050919050565b600061083c8261081f565b9050919050565b61085461084f826106df565b610831565b82525050565b600061086682856107fb565b6020820191506108768284610843565b6014820191508190509392505050565b7f4e487b7100000000000000000000000000000000000000000000000000000000600052601260045260246000fd5b60006108c08261062d565b91506108cb8361062d565b9250826108db576108da610886565b5b828206905092915050565b7f4e487b7100000000000000000000000000000000000000000000000000000000600052601160045260246000fd5b60006109208261062d565b915061092b8361062d565b9250828203905081811115610943576109426108e6565b5b92915050565b60006109548261062d565b915061095f8361062d565b9250828201905080821115610977576109766108e6565b5b92915050565b60006109888261062d565b91506109938361062d565b92508282026109a18161062d565b915082820484148315176109b8576109b76108e6565b5b5092915050565b7f4f776e61626c653a206e6577206f776e657220697320746865207a65726f206160008201527f6464726573730000000000000000000000000000000000000000000000000000602082015250565b6000610a1b602683610774565b9150610a26826109bf565b604082019050919050565b60006020820190508181036000830152610a4a81610a0e565b9050919050565b7f4f776e61626c653a2063616c6c6572206973206e6f7420746865206f776e6572600082015250565b6000610a87602083610774565b9150610a9282610a51565b602082019050919050565b60006020820190508181036000830152610ab681610a7a565b9050919050565b600081519050919050565b60005b83811015610ae6578082015181840152602081019050610acb565b60008484015250505050565b6000601f19601f8301169050919050565b6000610b0e82610abd565b610b188185610774565b9350610b28818560208601610ac8565b610b3181610af2565b840191505092915050565b60006040820190508181036000830152610b568185610b03565b9050610b656020830184610637565b939250505056fea26469706673582212209165e967f63766270c34760cf5b6d84a022d2b6e1a72535fe476a903f9472c6864736f6c63430008120033",
  "linkReferences": {},
  "deployedLinkReferences": {}
}