{
  "_format": "hh-sol-artifact-1",
  "contractName": "Lottery",
  "sourceName": "contracts/Lottery.sol",
  "abi": [
    {
      "anonymous": false,
      "inputs": [
        {
          "indexed": true,
          "internalType": "address",
          "name": "previousOwner",
          "type": "address"
        },
        {
          "indexed": true,
          "internalType": "address",
          "name": "newOwner",
          "type": "address"
        }
      ],
      "name": "OwnershipTransferred",
      "type": "event"
    },
    {
      "inputs": [],
      "name": "betOnNumber",
      "outputs": [],
      "stateMutability": "payable",
      "type": "function"
    },
    {
      "inputs": [
        {
          "internalType": "address",
          "name": "_player",
          "type": "address"
        }
      ],
      "name": "checkIfPlayerPlayed",
      "outputs": [
        {
          "internalType": "bool",
          "name": "",
          "type": "bool"
        }
      ],
      "stateMutability": "view",
      "type": "function"
    },
    {
      "inputs": [],
      "name": "enter",
      "outputs": [],
      "stateMutability": "payable",
      "type": "function"
    },
    {
      "inputs": [],
      "name": "getBalance",
      "outputs": [
        {
          "internalType": "uint256",
          "name": "",
          "type": "uint256"
        }
      ],
      "stateMutability": "view",
      "type": "function"
    },
    {
      "inputs": [],
      "name": "getOwner",
      "outputs": [
        {
          "internalType": "address",
          "name": "",
          "type": "address"
        }
      ],
      "stateMutability": "view",
      "type": "function"
    },
    {
      "inputs": [],
      "name": "getPlayers",
      "outputs": [
        {
          "internalType": "address[]",
          "name": "",
          "type": "address[]"
        }
      ],
      "stateMutability": "view",
      "type": "function"
    },
    {
      "inputs": [],
      "name": "owner",
      "outputs": [
        {
          "internalType": "address",
          "name": "",
          "type": "address"
        }
      ],
      "stateMutability": "view",
      "type": "function"
    },
    {
      "inputs": [],
      "name": "pickWinner",
      "outputs": [
        {
          "internalType": "address",
          "name": "",
          "type": "address"
        }
      ],
      "stateMutability": "nonpayable",
      "type": "function"
    },
    {
      "inputs": [
        {
          "internalType": "uint256",
          "name": "",
          "type": "uint256"
        }
      ],
      "name": "players",
      "outputs": [
        {
          "internalType": "address",
          "name": "",
          "type": "address"
        }
      ],
      "stateMutability": "view",
      "type": "function"
    },
    {
      "inputs": [],
      "name": "randomIndex",
      "outputs": [
        {
          "internalType": "uint256",
          "name": "",
          "type": "uint256"
        }
      ],
      "stateMutability": "view",
      "type": "function"
    },
    {
      "inputs": [],
      "name": "renounceOwnership",
      "outputs": [],
      "stateMutability": "nonpayable",
      "type": "function"
    },
    {
      "inputs": [
        {
          "internalType": "address",
          "name": "newOwner",
          "type": "address"
        }
      ],
      "name": "transferOwnership",
      "outputs": [],
      "stateMutability": "nonpayable",
      "type": "function"
    }
  ],
  "bytecode": "0x608060405234801561001057600080fd5b5061002d61002261003260201b60201c565b61003a60201b60201c565b6100fe565b600033905090565b60008060009054906101000a900473ffffffffffffffffffffffffffffffffffffffff169050816000806101000a81548173ffffffffffffffffffffffffffffffffffffffff021916908373ffffffffffffffffffffffffffffffffffffffff1602179055508173ffffffffffffffffffffffffffffffffffffffff168173ffffffffffffffffffffffffffffffffffffffff167f8be0079c531659141344cd1fd0a4f28419497f9722a3daafe3b4186f6b6457e060405160405180910390a35050565b610f0f8061010d6000396000f3fe6080604052600436106100a75760003560e01c806391c4153b1161006457806391c4153b1461019a578063dc2337e2146101d7578063e97dcb6214610202578063f2fde38b1461020c578063f46524eb14610235578063f71d96cb1461023f576100a7565b806312065fe0146100ac5780635d495aea146100d7578063715018a614610102578063893d20e8146101195780638b5b9ccc146101445780638da5cb5b1461016f575b600080fd5b3480156100b857600080fd5b506100c161027c565b6040516100ce919061093a565b60405180910390f35b3480156100e357600080fd5b506100ec610284565b6040516100f99190610996565b60405180910390f35b34801561010e57600080fd5b50610117610479565b005b34801561012557600080fd5b5061012e61048d565b60405161013b9190610996565b60405180910390f35b34801561015057600080fd5b5061015961049c565b6040516101669190610a6f565b60405180910390f35b34801561017b57600080fd5b5061018461052a565b6040516101919190610996565b60405180910390f35b3480156101a657600080fd5b506101c160048036038101906101bc9190610ac2565b610553565b6040516101ce9190610b0a565b60405180910390f35b3480156101e357600080fd5b506101ec610601565b6040516101f9919061093a565b60405180910390f35b61020a610607565b005b34801561021857600080fd5b50610233600480360381019061022e9190610ac2565b61067e565b005b61023d610701565b005b34801561024b57600080fd5b5061026660048036038101906102619190610b51565b61075a565b6040516102739190610996565b60405180910390f35b600047905090565b600061028e610799565b60006001805490509050600081116102db576040517f08c379a00000000000000000000000000000000000000000000000000000000081526004016102d290610bdb565b60405180910390fd5b60008142336004546040516020016102f593929190610c64565b6040516020818303038152906040528051906020012060001c6103189190610cd0565b90506004600081548092919061032d90610d30565b919050555060006001828154811061034857610347610d78565b5b9060005260206000200160009054906101000a900473ffffffffffffffffffffffffffffffffffffffff1690508073ffffffffffffffffffffffffffffffffffffffff166108fc479081150290604051600060405180830381858888f193505050501580156103bb573d6000803e3d6000fd5b50600180846103ca9190610da7565b815481106103db576103da610d78565b5b9060005260206000200160009054906101000a900473ffffffffffffffffffffffffffffffffffffffff166001838154811061041a57610419610d78565b5b9060005260206000200160006101000a81548173ffffffffffffffffffffffffffffffffffffffff021916908373ffffffffffffffffffffffffffffffffffffffff1602179055506001600061047091906108e3565b80935050505090565b610481610799565b61048b6000610817565b565b600061049761052a565b905090565b6060600180548060200260200160405190810160405280929190818152602001828054801561052057602002820191906000526020600020905b8160009054906101000a900473ffffffffffffffffffffffffffffffffffffffff1673ffffffffffffffffffffffffffffffffffffffff16815260200190600101908083116104d6575b5050505050905090565b60008060009054906101000a900473ffffffffffffffffffffffffffffffffffffffff16905090565b600080600090505b6001805490508110156105f6578273ffffffffffffffffffffffffffffffffffffffff166001828154811061059357610592610d78565b5b9060005260206000200160009054906101000a900473ffffffffffffffffffffffffffffffffffffffff1673ffffffffffffffffffffffffffffffffffffffff16036105e35760019150506105fc565b80806105ee90610d30565b91505061055b565b50600090505b919050565b60045481565b655af3107a4000341461061957600080fd5b6001339080600181540180825580915050600190039060005260206000200160009091909190916101000a81548173ffffffffffffffffffffffffffffffffffffffff021916908373ffffffffffffffffffffffffffffffffffffffff160217905550565b610686610799565b600073ffffffffffffffffffffffffffffffffffffffff168173ffffffffffffffffffffffffffffffffffffffff16036106f5576040517f08c379a00000000000000000000000000000000000000000000000000000000081526004016106ec90610e4d565b60405180910390fd5b6106fe81610817565b50565b662386f26fc10000341461071457600080fd5b34600360003373ffffffffffffffffffffffffffffffffffffffff1673ffffffffffffffffffffffffffffffffffffffff16815260200190815260200160002081905550565b6001818154811061076a57600080fd5b906000526020600020016000915054906101000a900473ffffffffffffffffffffffffffffffffffffffff1681565b6107a16108db565b73ffffffffffffffffffffffffffffffffffffffff166107bf61052a565b73ffffffffffffffffffffffffffffffffffffffff1614610815576040517f08c379a000000000000000000000000000000000000000000000000000000000815260040161080c90610eb9565b60405180910390fd5b565b60008060009054906101000a900473ffffffffffffffffffffffffffffffffffffffff169050816000806101000a81548173ffffffffffffffffffffffffffffffffffffffff021916908373ffffffffffffffffffffffffffffffffffffffff1602179055508173ffffffffffffffffffffffffffffffffffffffff168173ffffffffffffffffffffffffffffffffffffffff167f8be0079c531659141344cd1fd0a4f28419497f9722a3daafe3b4186f6b6457e060405160405180910390a35050565b600033905090565b50805460008255906000526020600020908101906109019190610904565b50565b5b8082111561091d576000816000905550600101610905565b5090565b6000819050919050565b61093481610921565b82525050565b600060208201905061094f600083018461092b565b92915050565b600073ffffffffffffffffffffffffffffffffffffffff82169050919050565b600061098082610955565b9050919050565b61099081610975565b82525050565b60006020820190506109ab6000830184610987565b92915050565b600081519050919050565b600082825260208201905092915050565b6000819050602082019050919050565b6109e681610975565b82525050565b60006109f883836109dd565b60208301905092915050565b6000602082019050919050565b6000610a1c826109b1565b610a2681856109bc565b9350610a31836109cd565b8060005b83811015610a62578151610a4988826109ec565b9750610a5483610a04565b925050600181019050610a35565b5085935050505092915050565b60006020820190508181036000830152610a898184610a11565b905092915050565b600080fd5b610a9f81610975565b8114610aaa57600080fd5b50565b600081359050610abc81610a96565b92915050565b600060208284031215610ad857610ad7610a91565b5b6000610ae684828501610aad565b91505092915050565b60008115159050919050565b610b0481610aef565b82525050565b6000602082019050610b1f6000830184610afb565b92915050565b610b2e81610921565b8114610b3957600080fd5b50565b600081359050610b4b81610b25565b92915050565b600060208284031215610b6757610b66610a91565b5b6000610b7584828501610b3c565b91505092915050565b600082825260208201905092915050565b7f5468657265206973206e6f20706c617965720000000000000000000000000000600082015250565b6000610bc5601283610b7e565b9150610bd082610b8f565b602082019050919050565b60006020820190508181036000830152610bf481610bb8565b9050919050565b6000819050919050565b610c16610c1182610921565b610bfb565b82525050565b60008160601b9050919050565b6000610c3482610c1c565b9050919050565b6000610c4682610c29565b9050919050565b610c5e610c5982610975565b610c3b565b82525050565b6000610c708286610c05565b602082019150610c808285610c4d565b601482019150610c908284610c05565b602082019150819050949350505050565b7f4e487b7100000000000000000000000000000000000000000000000000000000600052601260045260246000fd5b6000610cdb82610921565b9150610ce683610921565b925082610cf657610cf5610ca1565b5b828206905092915050565b7f4e487b7100000000000000000000000000000000000000000000000000000000600052601160045260246000fd5b6000610d3b82610921565b91507fffffffffffffffffffffffffffffffffffffffffffffffffffffffffffffffff8203610d6d57610d6c610d01565b5b600182019050919050565b7f4e487b7100000000000000000000000000000000000000000000000000000000600052603260045260246000fd5b6000610db282610921565b9150610dbd83610921565b9250828203905081811115610dd557610dd4610d01565b5b92915050565b7f4f776e61626c653a206e6577206f776e657220697320746865207a65726f206160008201527f6464726573730000000000000000000000000000000000000000000000000000602082015250565b6000610e37602683610b7e565b9150610e4282610ddb565b604082019050919050565b60006020820190508181036000830152610e6681610e2a565b9050919050565b7f4f776e61626c653a2063616c6c6572206973206e6f7420746865206f776e6572600082015250565b6000610ea3602083610b7e565b9150610eae82610e6d565b602082019050919050565b60006020820190508181036000830152610ed281610e96565b905091905056fea2646970667358221220b1c217bc1593b3e7a6923be86d1b340e4176b8ac7109ba654b912b446ba9de4164736f6c63430008120033",
  "linkReferences": {},
  "deployedLinkReferences": {}
}